9996045201012023110600000100000389691500000060SERVICIO            20231106                                                                                    
0100000070108830004155537511010000000605500020231110000000000227242947881BUERA MARCELA   GEOSECURITY                                                                                    
0100003300071620710080163048010000000605500020231110000000000320372884798FADEN FRANCO    GEOSECURITY                                                                                    
0000002850726430000012989079010000000652300020231110000000000430710202113PETIT FOURS S.A.GEOSECURITY                                                                                    
0000003300071610710078479095010000000544950020231110000000000520311171411RUGGERI LUCIANO GEOSECURITY                                                                                    
0100000110183230018310585901010000000605500020231110000000000623289496459REIESUANE LEANDRGEOSECURITY                                                                                    
0100002850726440094907800678010000000605500020231110000000000727283937874MACHADO MARISA SGEOSECURITY                                                                                    
0100003300071620710404947064010000000605500020231110000000000827327031452ORDONEZ CINTIA  GEOSECURITY                                                                                    
0100003300071620710027336005010000000605500020231110000000000920296104648MORICCI ROMAN   GEOSECURITY                                                                                    
0100002850726440095440836908010000000605500020231110000000001027136050112CANDIDO LILIANA GEOSECURITY                                                                                    
0100003300071620710408690087010000000605500020231110000000001127131893588BARRERA MONICA  GEOSECURITY                                                                                    
0100003300071620710407626003010000000605500020231110000000001227345937698PONCETTI MARIANEGEOSECURITY                                                                                    
0100003300071620710004960061010000000585000020231110000000001327166480669GOVERNATORI NORAGEOSECURITY                                                                                    
0100002850726440094571093338010000000605500020231110000000001423184281384BELTRAMINO BELKIGEOSECURITY                                                                                    
0100003300071620710407031090010000000605500020231110000000001523345937404DI LASCIO YAMILAGEOSECURITY                                                                                    
0000002850726430000000367047010000000585000020231110000000001630651296583PORTERIA CAC    GEOSECURITY                                                                                    
0100000110444230044427692265010000000652300020231110000000001720287718633DOIN LEONARDO   GEOSECURITY                                                                                    
0000000110183220018300137393010000000605500020231110000000001820271769807TELONI RODOLFO  GEOSECURITY                                                                                    
0100003300000620000396647043010000000605500020231110000000001927178174717VARELA MARIA LAUGEOSECURITY                                                                                    
0100000110183230018311517565010000000605500020231110000000002020254709205LOINAZ IVAN HUGOGEOSECURITY                                                                                    
0000000720446720000000055936010000000585000020231110000000002130695660533AMBROSINI GRACIEGEOSECURITY                                                                                    
0000002850726430094121085511010000001211000020231110000000002220139716702BARRERA SERGIO  GEOSECURITY                                                                                    
0100003300071620710909321000010000000605500020231110000000002327122303328SCARPETTA MIRTA GEOSECURITY                                                                                    
0100000110190030019026414301010000000652300020231110000000002420285682836BISCALDI SEBASTIGEOSECURITY                                                                                    
0000003300071610710001157092010000000585000020231110000000002530627010466TORASSA EL COLONGEOSECURITY                                                                                    
0000002850726440094871220568010000000605500020231110000000002620311171128VISSANI MATIAS  GEOSECURITY                                                                                    
0100003300071620710002819068010000000605500020231110000000002727202393670TETTAMANZI MARIAGEOSECURITY                                                                                    
0100000070103330004158189931010000000605500020231110000000002820294159194GIUNTA MARTIN   GEOSECURITY                                                                                    
0000000720118520000001809754010000000652300020231110000000002930716598183TABERNA PRIMA   GEOSECURITY                                                                                    
0000000150969802000000189479010000000652300020231110000000003023132283699ESTEVEZ JULIAN  GEOSECURITY                                                                                    
0100002850726440095016219768010000000605500020231110000000003123254322504GATTELET ANDREA GEOSECURITY                                                                                    
0000002850874830094195683521010000000652300020231110000000003230674865313CASSINA LEANDRO GEOSECURITY                                                                                    
0100000110183230018310750433010000000631800020231110000000003320246687936ACOSTA FELIPE   GEOSECURITY                                                                                    
0100002850726440094525302338010000000605500020231110000000003427180679087SCHUAGER BIANCHIGEOSECURITY                                                                                    
0100000720277588000037771036010000001316300020231110000000003520270556095MARIESCHI DANIELGEOSECURITY                                                                                    
0100002850894640094882247648010000000652300020231110000000003620290561567PRIMO DIEGO     GEOSECURITY                                                                                    
0100000110144330014474533051010000000605500020231110000000003720148039608ABAYAN LUCA     GEOSECURITY                                                                                    
0100000070075730004146029333010000000605500020231110000000003827398552321TOMASSONI FRANCOGEOSECURITY                                                                                    
0100002850771440094635702378010000000585000020231110000000003920178915089TOGUCHI ALEJANDRGEOSECURITY                                                                                    
0100002850726440095387046808010000000605500020231110000000004027254535457TROIANO JOANNA  GEOSECURITY                                                                                    
0100000170282040000033153760010000000652300020231110000000004120320755310CALCATERRA FELIZGEOSECURITY                                                                                    
0100002850726440095199311138010000000605500020231110000000004223083595574MARTINEZ ELDA INGEOSECURITY                                                                                    
0000000150969802000000189479010000000652300020231110000000004323132283699CARBON LOS LENOSGEOSECURITY                                                                                    
0100003300071620710017892094010000000664000020231110000000004423260273264MARTINEZ CLAUDIAGEOSECURITY                                                                                    
0000002850795030094196570011010000000652300020231110000000004530716057719LA FRANCIA PANIFGEOSECURITY                                                                                    
0100003300071620710011756039010000001211000020231110000000004627307929851TORRES SOLEDAD  GEOSECURITY                                                                                    
0100000170081740000041767357010000000605500020231110000000004720225420549REIBAK SILVINA  GEOSECURITY                                                                                    
0100000270043420035308860027010000000664000020231110000000004820322682543FANDO JOAQUIN   GEOSECURITY                                                                                    
0100003300004420040993594092010000000664000020231110000000004920338046252RULH JOAQUIN    GEOSECURITY                                                                                    
0100003300071620710003293027010000000652300020231110000000005020202393811MALDONADO WALTERGEOSECURITY                                                                                    
0100003300071620710910715070010000000605500020231110000000005127122302666BACCALA GRACIELAGEOSECURITY                                                                                    
0100000110140530014030830365010000000605500020231110000000005220134489155DIP JUAN CARLOS GEOSECURITY                                                                                    
0100000110144330014472865633010000000605500020231110000000005327057863094RACCA ANA       GEOSECURITY                                                                                    
0000003300071610710098248053010000000605500020231110000000005420289496719PAZZELLI DIEGO OGEOSECURITY                                                                                    
0000002850796730000005459426010000000664000020231110000000005520060254622LOFIEGO JOSE VICGEOSECURITY                                                                                    
0100000110444230044437963801010000000605500020231110000000005627344200128AGUILERA GUILLERGEOSECURITY                                                                                    
0000000110183220018300398105010000000605500020231110000000005720256742250AVIOTTI PABLO Y GEOSECURITY                                                                                    
0000003300000620000036421055010000000605500020231110000000005833690902139MAC INGENIERIA SGEOSECURITY                                                                                    
01000001509643/0100000535438010000000664000020231110000000005927280587767AYALA LILIANA DIGEOSECURITY                                                                                    
0100003300000620000980142059010000000605500020231110000000006027280587767BROCIO SILVINA  GEOSECURITY                                                                                    
0000000720118520000001513190010000000652300020231110000000006130708913312DIGITAL INSUMOS GEOSECURITY                                                                                    
