9996045201012023091200000100000516645000000022SERVICIO            20230912
0100000070108830004155537511010000002360500020230911000000000227242947881BUERA MARCELA   GEOSECURITY
0100003300071620710080163048010000002360500020230911000000000320372884798FADEN FRANCO    GEOSECURITY
0000002850726430000012989079010000002360500020230911000000000430710202113PETIT FOURS S.A.GEOSECURITY
0000003300071610710078479095010000002360500020230911000000000520311171411RUGGERI LUCIANO GEOSECURITY
0100000110183230018310585901010000002360500020230911000000000623289496459REIESUANE LEANDRGEOSECURITY
0100000440027140000130690887010000002360500020230911000000000727283937874MACHADO MARISA  GEOSECURITY
0100003300071620710404947064010000002360500020230911000000000827327031452ORDOÑEZ CINTIA GEOSECURITY
0100003300071620710027336005010000002360500020230911000000000920296104648ROMAN MORICCI   GEOSECURITY
0100002850726440095440836908010000002360500020230911000000001027136050112LILIANA CANDIDO GEOSECURITY
0100003300071620710408690087010000002340000020230911000000001127131893588BARRERA MONICA  GEOSECURITY
0100003300071620710407626003010000002340000020230911000000001227345937698PONCETTI MARIANEGEOSECURITY
0100003300071620710004960061010000002340000020230911000000001327166480669GOVERNATORI NORAGEOSECURITY
0100002850726440094571093338010000002340000020230911000000001423184281384BELTRAMINO BELKIGEOSECURITY
0100003300071620710407031090010000002340000020230911000000001523345937404DI LASCIO YAMILAGEOSECURITY
0000002850726430000000367047010000002340000020230911000000001630651296583PORTERIA CAC    GEOSECURITY
0100000110444230044427692265010000002340000020230911000000001720287718633DOIN LEONARDO   GEOSECURITY
0000000110183220018300137393010000002340000020230911000000001820271769807TELONI RODOLFO  GEOSECURITY
0100003300000620000396647043010000002340000020230911000000001927178174717VARELA MARIA LAUGEOSECURITY
0100000110183230018311517565010000002340000020230911000000002020254709205LOINAZ IVAN HUGOGEOSECURITY
0000000720446720000000055936010000002340000020230911000000002130695660533AMBROSINI GRACIEGEOSECURITY
0000002850726430094121085511010000002340000020230911000000002220139716702BARRERA SERGIO  GEOSECURITY
0100003300071620710909321000010000002340000020230911000000002327122303328SCARPETTA MIRTA GEOSECURITY
